:100000000C942A000C9447000C9447000C94470071
:100010000C9423030C9447000C9447000C94D502D5
:100020000C94FC020C9447000C94AE020C94470014
:100030000C9447000C9447000C9447000C94470024
:100040000C9447000C9447000C9447000C94470014
:100050000C94470011241FBECFE5D8E0DEBFCDBF12
:1000600010E0A0E6B0E0EAEFF9E002C005900D92E2
:10007000A036B107D9F710E0A0E6B0E001C01D92AC
:10008000A836B107E1F70E947F020C94FB040C94A0
:100090000000813049F1813038F0823009F444C0E9
:1000A000833009F07EC05FC0413069F4EBE3F0E0DB
:1000B000208181E090E002C0880F991F6A95E2F7E5
:1000C000282B20830895442309F06BC0EBE3F0E074
:1000D000208181E090E002C0880F991F6A95E2F7C5
:1000E0008095822380830895413069F4E8E3F0E04D
:1000F000208181E090E002C0880F991F6A95E2F7A5
:10010000282B20830895442309F04BC0E8E3F0E056
:10011000208181E090E002C0880F991F6A95E2F784
:100120008095822380830895413069F4E5E3F0E00F
:10013000208181E090E002C0880F991F6A95E2F764
:10014000282B20830895442361F5E5E3F0E0208126
:1001500081E090E002C0880F991F6A95E2F78095D0
:10016000822380830895413069F4E2E3F0E0208146
:1001700081E090E002C0880F991F6A95E2F7282B72
:1001800020830895442369F4E2E3F0E0208181E0D4
:1001900090E002C0880F991F6A95E2F7809582234C
:1001A00080830895813049F1813038F0823009F43C
:1001B00044C0833009F07EC05FC0413069F4EAE397
:1001C000F0E0208181E090E002C0880F991F6A95DD
:1001D000E2F7282B20830895442309F06BC0EAE35B
:1001E000F0E0208181E090E002C0880F991F6A95BD
:1001F000E2F78095822380830895413069F4E7E334
:10020000F0E0208181E090E002C0880F991F6A959C
:10021000E2F7282B20830895442309F04BC0E7E33D
:10022000F0E0208181E090E002C0880F991F6A957C
:10023000E2F78095822380830895413069F4E4E3F6
:10024000F0E0208181E090E002C0880F991F6A955C
:10025000E2F7282B20830895442361F5E4E3F0E0DE
:10026000208181E090E002C0880F991F6A95E2F733
:100270008095822380830895413069F4E1E3F0E0C2
:10028000208181E090E002C0880F991F6A95E2F713
:10029000282B20830895442369F4E1E3F0E02081D2
:1002A00081E090E002C0880F991F6A95E2F780957F
:1002B0008223808308952F923F924F925F926F9294
:1002C0007F929F92AF92BF92CF92DF92EF92FF9276
:1002D0000F931F93DF93CF9300D000D0CDB7DEB73D
:1002E00099249C0140E050E029833A834B835C834E
:1002F00022243324239420E23EE4281B390B2901D5
:100300006624772482E060E041E00E944900698130
:100310007A818B819C810E94E2035B016C012BEA54
:100320003AEA4AE250E40E9498047B018C0120E002
:1003300030E040E85FE30E944A03882314F461E060
:1003400051C0C801B70120E030E04FE753E40E94FC
:10035000940418160CF042C0C601B50120E030E04C
:100360004AE754E40E944E035B016C0120E030E058
:100370004AEF54E40E9498047B018C0120E030E0B5
:1003800040E85FE30E944A03882314F4B10122C0CD
:10039000C801B70120E03FEF4FE757E40E94940403
:1003A0001816A4F4C601B50120E030E040E251E4A3
:1003B0000E9498040E94B603CB01672BA9F0E8ECD9
:1003C000F0E03197F1F70197D1F70EC0C801B701FE
:1003D0000E94B603CB010197F1F706C0C801B7012F
:1003E0000E94B6036A95F1F782E060E040E00E9467
:1003F0004900C301B2010E94E2035B016C012BEAD8
:100400003AEA4AE250E40E9498047B018C0120E021
:1004100030E040E85FE30E944A03882314F461E07F
:1004200051C0C801B70120E030E04FE753E40E941B
:10043000940418160CF042C0C601B50120E030E06B
:100440004AE754E40E944E035B016C0120E030E077
:100450004AEF54E40E9498047B018C0120E030E0D4
:1004600040E85FE30E944A03882314F4B10122C0EC
:10047000C801B70120E03FEF4FE757E40E94940422
:100480001816A4F4C601B50120E030E040E251E4C2
:100490000E9498040E94B603CB01672BA9F0E8ECF8
:1004A000F0E03197F1F70197D1F70EC0C801B7011D
:1004B0000E94B603CB010197F1F706C0C801B7014E
:1004C0000E94B6036A95F1F7939435E0931609F00C
:1004D00019CF0F900F900F900F90CF91DF911F9138
:1004E0000F91FF90EF90DF90CF90BF90AF909F90D3
:1004F0007F906F905F904F903F902F9008950F9353
:100500001F93CF93DF9382E060E041E00E94D2002E
:1005100000E117E2C8ECD0E080EB94E00E945B01C0
:100520009801CE010197F1F721503040D1F780E6D4
:1005300099E00E945B019801CE010197F1F72150EB
:100540003040D1F78CE697E00E945B019801CE0124
:100550000197F1F721503040D1F7DECF1F920F9273
:100560000FB60F9211242F933F934F935F936F9386
:100570007F938F939F93AF93BF93EF93FF93E091FC
:100580006600F09167000995FF91EF91BF91AF91DF
:100590009F918F917F916F915F914F913F912F919B
:1005A0000F900FBE0F901F9018951F920F920FB6CD
:1005B0000F9211242F933F934F935F936F937F93E9
:1005C0008F939F93AF93BF93EF93FF93E09160005E
:1005D000F09161000995FF91EF91BF91AF919F91CB
:1005E0008F917F916F915F914F913F912F910F90DC
:1005F0000FBE0F901F9018951F920F920FB60F927B
:1006000011242F933F934F935F936F937F938F9317
:100610009F93AF93BF93EF93FF93E0916200F091AC
:1006200063000995FF91EF91BF91AF919F918F91D9
:100630007F916F915F914F913F912F910F900FBEDE
:100640000F901F9018951F920F920FB60F921124C2
:100650002F933F934F935F936F937F938F939F93CA
:10066000AF93BF93EF93FF93E0916400F091650027
:100670000995FF91EF91BF91AF919F918F917F91DC
:100680006F915F914F913F912F910F900FBE0F90FF
:100690001F901895D4D008F481E008950CD00AC1B9
:1006A00002D140F0F9D030F021F45F3F19F0EBC0F7
:1006B000511134C1EEC00FD198F39923C9F35523DA
:1006C000B1F3951B550BBB27AA2762177307840745
:1006D00038F09F5F5F4F220F331F441FAA1FA9F3FB
:1006E00033D00E2E3AF0E0E830D091505040E695ED
:1006F000001CCAF729D0FE2F27D0660F771F881F4E
:10070000BB1F261737074807AB07B0E809F0BB0B3C
:10071000802DBF01FF2793585F4F2AF09E3F510560
:1007200068F0B1C0FBC05F3FECF3983EDCF3869508
:1007300077956795B795F7959F5FC9F7880F911DD6
:100740009695879597F90895E1E0660F771F881FC2
:10075000BB1F621773078407BA0720F0621B730B75
:10076000840BBA0BEE1F88F7E0950895BCD088F093
:100770009F5790F0B92F9927B751A0F0D1F0660F8D
:10078000771F881F991F1AF0BA95C9F712C0B130A8
:1007900081F0C3D0B1E00895C0C0672F782F8827BB
:1007A000B85F39F0B93FCCF3869577956795B395E7
:1007B000D9F73EF490958095709561957F4F8F4F56
:1007C0009F4F0895E89409C097FB3EF4909580955B
:1007D000709561957F4F8F4F9F4F9923A9F0F92F07
:1007E00096E9BB279395F695879577956795B79585
:1007F000F111F8CFFAF4BB0F11F460FF1BC06F5F6B
:100800007F4F8F4F9F4F16C0882311F096E911C07C
:10081000772321F09EE8872F762F05C0662371F09D
:1008200096E8862F70E060E02AF09A95660F771FB1
:10083000881FDAF7880F9695879597F90895990F8D
:100840000008550FAA0BE0E8FEEF16161706E8079A
:10085000F907C0F012161306E407F50798F0621BBB
:10086000730B840B950B39F40A2661F0232B242B90
:10087000252B21F408950A2609F4A140A6958FEFAF
:10088000811D811D089597F99F6780E870E060E001
:1008900008959FEF80EC089500240A941616170619
:1008A00018060906089500240A9412161306140661
:1008B00005060895092E0394000C11F4882352F0C4
:1008C000BB0F40F4BF2B11F460FF04C06F5F7F4F7C
:1008D0008F4F9F4F089557FD9058440F551F59F063
:1008E0005F3F71F04795880F97FB991F61F09F3F1D
:1008F00079F087950895121613061406551FF2CF46
:100900004695F1DF08C0161617061806991FF1CF95
:1009100086957105610508940895E894BB276627BC
:100920007727CB0197F908958ADF08F48FEF0895B0
:100930000BD0C0CFB1DF28F0B6DF18F0952309F057
:10094000A2CFA7CF1124EACFC6DFA0F3959FD1F3A2
:10095000950F50E0551F629FF001729FBB27F00D6D
:10096000B11D639FAA27F00DB11DAA1F649F6627C2
:10097000B00DA11D661F829F2227B00DA11D621F11
:10098000739FB00DA11D621F839FA00D611D221FCB
:10099000749F3327A00D611D231F849F600D211DAF
:1009A000822F762F6A2F11249F5750408AF0E1F052
:1009B00088234AF0EE0FFF1FBB1F661F771F881F9B
:1009C00091505040A9F79E3F510570F05CCFA6CFE3
:1009D0005F3FECF3983EDCF3869577956795B79586
:1009E000F795E7959F5FC1F7FE2B880F911D9695B0
:0A09F000879597F90895F894FFCF5A
:00000001FF
